:020000040800F2
:10000000C0930024A103000849AE00083D980008F1
:1000100045AE0008631D0008D5D9000800000000A7
:10002000000000000000000000000000E1020008E5
:10003000A12D0008000000003D03000895C1000844
:10004000BB030008BB030008BB030008BB03000898
:10005000BB030008BB030008BB030008BB03000888
:10006000BB030008BB030008BB03000845280008C9
:1000700055280008BB030008BB030008BB030008A9
:10008000BB030008BB030008BB030008652F000882
:10009000D52F0008BB030008BB030008BB03000802
:1000A000BB030008BB030008BB030008BB03000838
:1000B0005DC30008BB030008BB030008BB030008C6
:1000C000BB030008BB030008BB030008BB03000818
:1000D0002DC0000841D90008BB030008BB0300087D
:1000E000BB030008BB03000800000000BB030008BE
:1000F000BB030008BB030008BB030008BB030008E8
:10010000BB030008BB030008BB030008BB030008D7
:10011000BB030008BB030008BB030008BB030008C7
:10012000BB030008BB030008BB030008BB030008B7
:10013000BB030008BB030008BB030008BB030008A7
:1001400000000000000000000000000000000000AF
:10015000BB030008BB030008BB030008BB03000887
:10016000BB030008BB030008BB030008BB03000877
:10017000BB030008BB030008BB030008000000002D
:10018000BB030008BB030008BB030008BB03000857
:10019000BB030008BB030008BB030008BB03000847
:1001A000BB030008BB030008BB03000800000000FD
:1001B000BB030008BB030008BB030008BB03000827
:1001C000BB030008BB0300080000000000000000A3
:1001D0000000000000000000BB0300080000000059
:1001E000000000000000000000000000000000000F
:1001F0000000000000000000BB030008BB03000873
:10020000BB030008BB03000800000000BB0300089C
:10021000BB030008BB030008BB030008BB030008C6
:10022000BB03000800000000BB0300080000000042
:10023000BB030008BB03000800000000BB0300086C
:10024000BB030008BB030008BB030008BB03000896
:10025000BB030008BB030008BB030008BB03000886
:10026000BB030008BB030008BB030008BB03000876
:10027000BB030008BB030008BB030008000000002C
:10028000BB030008BB030008BB030008BB03000856
:1002900000000000BB030008BB03000800000000D2
:1002A00000000000BB030008BB030008BB030008FC
:1002B000BB030008BB030008BB030008E52F0008D0
:1002C000BB030008BB030008BB030008DFF80CD029
:1002D00000F036FC004800471D040108C0930024CC
:1002E0002C4B19680868B0E8F04F80F30988BFF319
:1002F0006F8F4FF0000080F31188704700000000FE
:1003000008480068006880F308884FF0000080F318
:10031000148862B661B6BFF34F8FBFF36F8F00DFF3
:1003200000BF00BF08ED00E0DFF80C00016841F4F9
:1003300070010160704700BF88ED00E0EFF30980B5
:10034000BFF36F8F134B1A681EF0100F08BF20ED1C
:10035000108A20E9F04F106009B44FF0500080F38C
:100360001188BFF34F8FBFF36F8F11F0E9FA4FF091
:10037000000080F3118809BC19680868B0E8F04FE4
:100380001EF0100F08BFB0EC108A80F30988BFF38D
:100390006F8F70479C000024EFF3058070470000CA
:1003A0000648804706480047FEE7FEE7FEE7FEE70F
:1003B000FEE7FEE7FEE7FEE7FEE7FEE77DC2000898
:1003C000CD0200082DE9F05F0546002092469B46CD
:1003D00088460646814640241BE02846414647465B
:1003E000224600F0A2F953465A46C01A914110D352
:1003F00011461846224600F089F92D1A67EB0108CC
:100400004F4622460120002100F080F917EB000939
:100410004E41201EA4F10104DFDC484631462A4645
:100420004346BDE8F09F40EA01039B0703D009E083
:1004300008C9121F08C0042AFAD203E011F8013BD0
:1004400000F8013B521EF9D27047D2B201E000F829
:10045000012B491EFBD270470022F6E710B5134668
:100460000A4604461946FFF7F0FF204610BD421C1D
:1004700010F8011B0029FBD1801A70470FB400B59A
:100480008DB010A909900B9000914FF0FF300A90A9
:1004900000200C9005480690054807906A4609A878
:1004A0000F9900F067F90DB05DF814FB9107000893
:1004B000AF0700082DE9FF5F1D464FF0FF3BD5E970
:1004C000014691465F464FF00008A9697F1C0198DC
:1004D0008847296A824688470028F6D1BAF1FF3F4B
:1004E0000CD024F4C064002E19DD600614D5BAF1D6
:1004F0002B0F09D0BAF12D0F0ED103E0584604B0EE
:10050000BDE8F09F44F48064A9697F1C0198884786
:10051000761E8246002E02DDBAF1300F03D0B9F10B
:10052000000F26D032E0A969761E44F400747F1CC7
:10053000019888478246002E05DDBAF1780F06D073
:10054000BAF1580F03D0B9F1000F10D01EE0B9F185
:10055000000F02D0B9F1100F18D1A969761E24F44A
:1005600000747F1C019888478246102002E0082012
:1005700000E00A20814609E008FB0908A969761E07
:1005800044F400747F1C019888478246002E05DDE4
:100590004946504600F0D9F80028EDDAE96901989B
:1005A0008847A00502D46FF00100A8E7E00725D135
:1005B000600613D5600502D5C8F1000000E0404692
:1005C00029680A1D2A600968220501D5087015E00E
:1005D000220701D5088011E008600FE02868011D9E
:1005E00029600068210502D580F8008006E0210717
:1005F00002D5A0F8008001E0C0F8008038467EE710
:100600002DE9FF5FD2E901A74FF0000891699946F3
:100610001446DDF838B0464601988847054659EA41
:100620000B0005D009E0A169761C019888470546B2
:10063000216A284688470028F5D1681C03D05FEA64
:10064000CA7005D015E04FF0FF3004B0BDE8F09F50
:100650002068011D2160D0F800800AE05FEACA70BE
:1006600001D108F8015BA169761C7F1E01988847BB
:100670000546002F1ADD681C18D0B9F1000F0DD007
:10068000E81705EBD060421120F01F0059F8221046
:100690002A1A012090400142E0D107E0BBF1000F8F
:1006A000DCD1216A284688470028D7D0E169019823
:1006B0008847BBF1000F07D1002E05DD5FEACA7045
:1006C00002D1002188F80010A068B84203DDBBF118
:1006D000000F03D017B16FF00100B6E73046B4E762
:1006E00030B50B46014600202022012409E021FA02
:1006F00002F59D4205D303FA02F5491B04FA02F5FF
:100700002844151EA2F10102F1DC30BD202A04DBD1
:10071000203A00FA02F1002070479140C2F1200314
:1007200020FA03F3194390407047202A04DB203A53
:1007300021FA02F00021704721FA02F3D040C2F101
:10074000200291400843194670473A2800D23038B9
:1007500020F02002412A01D3A2F13700884201D3C0
:100760004FF0FF30704700000268114413780160B9
:1007700018467047D1600449516104491162002153
:100780001161114600F006BA69070008890B0008DC
:10079000426842B1016811F8013B23B1521EC0E921
:1007A0000012184670470121C160881E70474268D8
:1007B0005AB1C368016843B983688B4205D0491EAA
:1007C000521CC0E90012002070474FF0FF30704704
:1007D0002DE9FE4F804681EA0300C00F0C460090D1
:1007E00021F0004123F00045B8EB0200A94105D2F9
:1007F0004046214690461C460B46024623F00040E8
:10080000104347D0270DC7F30A00C3F30A510290E3
:10081000401A019040286BDAC3F3130040F4801BA8
:100820000098924620B10023D2EB030A63EB0B0B36
:1008300001985946C0F140025046FFF767FF06464F
:100840000D4650465946019A00F08CF910EB08000D
:100850006141002487EA115284EAE7731A4340D0C9
:10086000009A62B3019A012A4FEA075215DC001B75
:1008700061EB02014FF0004202EA0752CDE900426B
:10088000001C41F5801132462B4600F028FB03B0D6
:10089000BDE8F08F40462146F9E7001B61EB0201FD
:1008A000001C41F5801300185B412018A2F50017C9
:1008B00047EB030140EAD570B6196D4111E06D08B0
:1008C0004FEA360645EAC0754FEA0752001B61EB56
:1008D0000201001C41F5801149084FEA300000195F
:1008E000514132462B4603B0BDE8F04F00F0E8BA64
:1008F0000098012240000023D0EB020263EBE0737A
:10090000009821464FEAE074B8EB000061EB040167
:10091000E9E783F000435BE781F0004158E72DE908
:10092000FE4F81EA030404F0004421F000410094EA
:100930004FF0000B23F0004350EA01045ED052EA6E
:1009400003045BD0C3F30A54C1F30A552C44A4F248
:10095000F3340194A0FB0254C1F3130141F480115C
:10096000C3F3130343F4801301FB024400FB034E63
:10097000840A970A44EA815447EA8357A4FB07682C
:1009800002958D0A05FB07854FEA932C04FB0C5456
:100990002705029D4FEA065847EA1637B5EB0805CA
:1009A0006EEB070C870E920E47EA811742EA83121C
:1009B000A7FB0201B6EB0B0164EB00042B0D43EA2D
:1009C0000C335E1844EB1C50DA465146E7FB02013B
:1009D000C5F313044FEA0B3343EA14534FEA0432CE
:1009E000019C43EA0603A4F10C040294009CCDE9A7
:1009F00000B400F074FA03B0BDE8F08F00200146A7
:100A0000F9E72DE9F04D81EA030404F0004B21F0F1
:100A1000004514464FF0000A23F0004150EA050259
:100A200020D054EA01021DD0C5F30A570246C5F38F
:100A30001303C1F31300C1F30A5640F4801543F4C5
:100A40008013A7EB0608101BD64608F2FD3873EB9F
:100A5000050002D308F1010801E092185B41B8F1EA
:100A6000000F03DA00200146BDE8F08D00204FF4AE
:100A70008011064684460EE0171B73EB050705D36D
:100A8000121B63EB050306434CEA010C49084FEACD
:100A9000300092185B4150EA0107EDD152EA0300A1
:100AA00012D082EA040083EA0501084305D0101B36
:100AB000AB4106D20122002306E000224FF00043A2
:100AC00002E06FF0010253101AEB06004CEB0851E4
:100AD00010EB0A0041EB0B01BDE8F04D00F0F0B95E
:100AE000C1F30A52C1F3130140F2FF3341F4801104
:100AF0009A4202DA00200146704740F233439A429C
:100B0000A2F2334202DC5242FFF70FBEFFF7FEBDF6
:100B100030B5041E71F1000404DB4FF00044404284
:100B200064EB0101141E73F1000405DB1C464FF059
:100B30000043524263EB0403994208BF904230BD28
:100B4000064C074D06E0E06840F0010394E807001A
:100B500098471034AC42F6D3FFF7BCFB7C32010857
:100B60009C320108202A06DBCB17203A41FA02F01A
:100B700043EAE07306E041FA02F3D040C2F12002FA
:100B80009140084319467047C0B24FF4F05100F04D
:100B9000F5B900002DE9F34F8BB04FF0000801F1DB
:100BA0000C000C464FF0010B46460DF1080A01906F
:100BB0006269012101989047051E2DD0252D2CD06A
:100BC000216A8847C0B16269012101989047216A72
:100BD00088470028F7D1411E62690198904700E0DC
:100BE000761CA1690B988847216A88470028F7D1AD
:100BF000E1690B988847DBE7A1690B9888470746AE
:100C0000A84201D1761CD3E7E1690B9888477F1C85
:100C100002D1B8F1000F6FD046E1002762693D466E
:100C20003946019890472A2804D162690121019828
:100C300090470125DFF8849262690121019890476D
:100C4000A0F130010A290AD24F45E5DC07EB870104
:100C500000EB4107303FDFD445F01005ECE7E90633
:100C600001D46FF000476C280AD04C2814D06828B3
:100C700015D06A280DD074281CD07A281AD01DE00F
:100C800062690121019890476C2802D045F0040563
:100C900014E045F002050DE045F020050AE0626928
:100CA000012101989047682802D045F0080505E029
:100CB00045F400656269012101989047C4E9015734
:100CC00065283DD019DC58287AD00CDC452837D06F
:100CD00004DC252826D0412831D131E046282FD008
:100CE00047282CD12CE05B2877D0612828D06328B6
:100CF0007CD0642823D15AE0D0E06F2848D008DCAB
:100D000066281DD067281BD0692821D06E2816D1EF
:100D100027E0702845D0732868D0752847D07828F8
:100D20000DD14DE0A1690B988847054625283FF471
:100D300069AFE1690B9888476D1C3FF46AAFB3E077
:100D400023466A466FF001000B99AFF300809EE0E6
:100D500045F040006060A80723464FF0000236D4FB
:100D60003EE0E8077FF447AF2068011D216000687E
:100D7000290501D506701BE7290701D5068017E76D
:100D8000A90703D5F117C0E9006111E706600FE775
:100D900045F040006060A80723464FF0080216D4D3
:100DA0001EE040F60E0125EA0100606016E045F005
:100DB00040006060A80723464FF00A0207D40FE006
:100DC00045F040006060A80708D5234610226FF068
:100DD00001000B99AFF3008059E007E02346102291
:100DE0006FF001000B99FFF765FB50E04FF0000931
:100DF0004F464B46632802D05B2806D040E0E80609
:100E000001D40120A06001273AE062690121019824
:100E100090475E2805D14FF0010962694946019863
:100E20009047216939B900210A46534643F82120E9
:100E3000491C0829FADBB0B3216969B9C11700EB75
:100E4000D16253110AEB830122F01F02821A0120A2
:100E50000B68904003430B60626901210198904741
:100E60005D28E8D1B9F1000F09D00020514651F8B2
:100E70002020D24341F82020401C0828F7DB02AB99
:100E8000224600976FF001000B99FFF7B9FB00288D
:100E90000CDA401C08D1BBF1000F05D04FF0FF3039
:100EA0000DB0BDE8F08FFFE74046F9E7E90701D153
:100EB00008F1010806444FF0000B79E6CCCCCC0CCD
:100EC00010B5141E73F1000408DA401C41F1000152
:100ED00092185B411A4301D120F0010010BD2DE9A9
:100EE000F04D92469B4611B1B1FA81F202E0B0FAA0
:100EF00080F220329046FFF709FC04460F4640EA94
:100F00000A0041EA0B0153465A46084313D01146E2
:100F100053EA010019D0C8F140025046FFF705FC22
:100F200005460E46504659464246FFF7EFFB08433A
:100F300005D0012004E020463946BDE8F08D0020B0
:100F4000054346EAE0762C4337430A986305E40AF2
:100F5000A0EB08000022FD0A44EA47540A3002D5FB
:100F600000200146E9E7010510196941DDE908455E
:100F700000196941BDE8F04DA2E700007F2801D9C2
:100F8000002208E0064A02EB5002C007127800D1A6
:100F9000120902F00F020120904008407047000043
:100FA000C429010870B58C1810F8015B15F007030F
:100FB00001D110F8013B2A1106D110F8012B03E0F2
:100FC00010F8016B01F8016B5B1EF9D12B0705D4FA
:100FD0000023521E0DD401F8013BFAE710F8013B43
:100FE000CB1A921C03E013F8015B01F8015B521E5F
:100FF000F9D5A142D8D3002070BD00009FED201A82
:10100000B5EE002A00EE012A9FED1E1ABDEEC20ABF
:10101000B5EEC02AF1EE10FA10EE100AB8BF013892
:1010200000EE100A0020B8EEC00A32EE400A9FED32
:10103000162A20EE010ABCEEC01A11EE101A30EE8C
:10104000021AB0EB512F18BF002102EE101A42F61F
:10105000782000FE010AC0F60100B8EE422A00EB3B
:10106000810090ED011A30EE420AB7EE002A32EE0E
:10107000402A20EE010A90ED001A02EE010A7047A4
:1010800083F9223E00000044000000C4B0B503888C
:101090000D88AB4256D145884C88A54252D1148860
:1010A000A3424FD15488A5424CD105FB03FC4368B1
:1010B00000254968B5EB9C0F506831D04FEA9C027F
:1010C000524200BF93ED000A91ED001A30EE010A82
:1010D00003F1100E01F1100400F1100580ED000A7B
:1010E000013293ED010A91ED011A30EE010A80ED13
:1010F000010A93ED020A91ED021A30EE010A80ED29
:10110000020A93ED030A91ED031A30EE010A7346C9
:10111000214680ED030A2846D4D12146284673464D
:101120001CF003020CD05242B3EC010AB1EC011ADC
:1011300030EE010A051D013280ED000A2846F3D188
:10114000002000E0FD2040B2B0BD0180428043603D
:10115000704700002DE9F04F8BB0B0F800B0B0F848
:1011600002E0F34540F051810B88FD229B4540F0A1
:101170004D814F88BB4240F04981BBF1000F43686D
:1011800000F029816FF003004C6800EB8B08CDF86C
:101190001CE0002700934FF07E5906945E462046DF
:1011A000BBEB060009D0B9002046FFF755F9002037
:1011B0000130874204F10404FAD104F1040AC4F8AE
:1011C0000090751E10D0A8EB87015046FFF744F938
:1011D000012054460130864204F10404FAD1002D66
:1011E00007F101072E46DBD1BBF1000F009BDDF8B4
:1011F0001CE000F0F0800420CDF814B000EB8E006D
:1012000001901846ABF1010603EB8E044FEA8E0203
:101210001D1DCEF10001002308919FED800A774645
:10122000814600BF5B4580F0F58003FB0EF0B0EE19
:10123000403A09EB80010A9191ED001A0699B0EE4F
:10124000414A01EB800009902146304606E000BF8C
:1012500091ED004A0138B0EE423A1144B5EEC04A71
:10126000F1EE10FA0ADDB4EEC34AB0EE442AF1EE14
:1012700010FAD8BFB0EE432A09E000BFB1EE442A0D
:10128000B4EEC23AF1EE10FA01DBB0EE432A0028C8
:10129000DED1B5EE402AF1EE10FA00F0BB80B0EEE0
:1012A000C13AB4EE423AF1EE10FA1CBFD84310EB4B
:1012B0000B0004D0002000BF01308642FCD1B5EE07
:1012C000401AF1EE10FA00F0A580CDE90346AEEB2E
:1012D000030C0A99BCF1010F4FF07E5008600AD050
:1012E0000120294691ED002A82EE012A0130874231
:1012F000A1EC012AF6D1DDE9080100BF91ED002A39
:1013000082EE012A0C1D013081ED002A2146F5D123
:10131000ACF1010B05994FF00008DDF818A0484624
:10132000CDF80890984505D100EB8C060AEB8E0AA3
:1013300033E000BF90ED001A0A9CB0EE413ABBF1D9
:10134000000F94ED002A01EE423A00F1040680ED10
:10135000003A15D00120002406EB040905EB040E29
:1013600099ED002A9EED003A01EE432A01308742B2
:1013700004F1040489ED002AEED12644DDF81CE0D6
:10138000DDE908049AED002A94ED003A01EE432AC3
:1013900004340130AAEC012AF4D106EB83000139B0
:1013A00008F10108BED1DDF80890013F049E09F163
:1013B0000409039C03F101030198A6F1010604440A
:1013C000DDF814B005447FF42DAFB5EE401A009B54
:1013D000F1EE10FA20D10EFB0BF1002000294FF0A6
:1013E00000020BD093ED000AB5EE400AF1EE10FAC0
:1013F00004D101328A4203F10403F3D38A4208BFC5
:101400006FF004000BB0BDE8F08FFD2250B20BB0BE
:10141000BDE8F08FFB22F9E70022F7E700000000AB
:101420002DE9F04F88B0B0F802C00B889C4540F021
:101430008880B0F800E013889E4540F08280B1F8C3
:101440000290538899457CD14FEA9C04476804FB7D
:1014500009F049680CF00305029101EB00100190BE
:1014600000202CF00303A0EB9C0107EB83060791FF
:101470004FEA89035168C5F1000A00919FED330AD4
:10148000CDE9039CCDE9050E0099CE4601EB80081D
:10149000DDE901BC002CB0EE401AE146384627D009
:1014A000624607993846B0EE401A00BF92ED002A16
:1014B00090ED003A03EE021A1A4490ED014A92EDC3
:1014C000002A04EE021A1A4490ED025A92ED002A04
:1014D00005EE021A1A4490ED036A92ED002A06EE18
:1014E000021A013100F110001A44DFD1D94630460A
:1014F00055B1514690ED002A99ED003A02EE031ADB
:10150000043001319944F5D108F1040088ED001A46
:10151000BEF1010E0CF1040C0BF1040B8046B9D1A5
:10152000DDF80C900598DDF810C04844DDF818E0AF
:1015300007EB8C07BEF1010E06EB8C06A2D1002052
:1015400000E0FD2040B208B0BDE8F08F00000000D0
:10155000B0B503880D88AB4256D145884C88A5426A
:1015600052D11488A3424FD15488A5424CD105FBD7
:1015700003FC436800254968B5EB9C0F506831D0E7
:101580004FEA9C02524200BF93ED000A91ED001A0F
:1015900030EE410A03F1100E01F1100400F11005C4
:1015A00080ED000A013293ED010A91ED011A30EE4F
:1015B000410A80ED010A93ED020A91ED021A30EE24
:1015C000410A80ED020A93ED030A91ED031A30EE11
:1015D000410A7346214680ED030A2846D4D12146AC
:1015E000284673461CF003020CD05242B3EC010AA9
:1015F000B1EC011A30EE410A051D013280ED000AFE
:101600002846F3D1002000E0FD2040B2B0BD00002C
:101610002DE9F04F83B002884B889A424DD144881F
:101620000B889C4249D10023D1F804804FEA940CE6
:10163000416804F0030ECDF80080A3EB94040294FB
:10164000140196000194CEF1000B4046BCF1000F4E
:101650001ED04746029C00BF08683D4638603744AC
:10166000486807EB0609A85101F11000D1F808A05D
:10167000013447F806A009EB0607C968374449F862
:1016800006100146E8D101996C18014603E000BF3D
:10169000009800EB8304BEF1000F07D05D4600BF49
:1016A00051F8040B013520603444F9D10133013A7B
:1016B00008F10408CAD1002000E0FD2040B203B0C8
:1016C000BDE8F08F9FED1F1A20EE010A9FED1F2A43
:1016D000BDEEC01AB5EEC00AF1EE10FA11EE100A16
:1016E000B8BF013801EE100A0020B8EEC11A30EE82
:1016F000410A9FED151A20EE010ABCEEC01A11EE48
:10170000101A30EE021AB0EB512F18BF002102EE72
:10171000101A42F6782000FE010AC0F60100B8EE69
:10172000422A00EB810090ED011A30EE420AB7EE3A
:10173000002A32EE402A20EE010A90ED001A02EE55
:10174000010A704783F9223E00000044000000C4F3
:1017500010B501221146024804F0FAF910BD00004C
:101760000008025810B500220121024804F0F0F9E7
:1017700010BD00000008025810B5012208210248DF
:1017800004F0E6F910BD00000008025810B5002270
:101790000821024804F0DCF910BD000000080258DE
:1017A00010B50446FFF7DEFF922000F011FA062282
:1017B000C249122000F0ECF9FFF7CAFFC0480078D8
:1017C000002855D0BD484078000200B2BB490978D6
:1017D0000843BC49088094ED0C0A0846B0F90000A3
:1017E00000EE900AF8EEE00AB74890ED001A60EEBD
:1017F000810A94ED081A10EE810A84ED000AAF48C0
:10180000C078000200B2AD4989780843AD4908802C
:1018100094ED0D0A0846B0F9000000EE900AF8EECB
:10182000E00AA94890ED001A60EE810A94ED081ACA
:1018300010EE810A84ED010AA0484079000200B24E
:101840009E49097908439F4908800846B0F900007D
:1018500000EE100AB8EEC00A9B48D0ED000A20EE58
:10186000200AD4ED080A20EE200A84ED020A50E096
:1018700092484078000200B29049097808439149A3
:1018800008800846B0F9000000EE100AB8EEC00A61
:101890008D48D0ED000A20EE200AD4ED080A20EE93
:1018A000200A84ED000A8548C078000200B283490E
:1018B00089780843834908800846B0F9000000EEA3
:1018C000100AB8EEC00A8048D0ED000A20EE200AC7
:1018D000D4ED080A20EE200A84ED010A7748407909
:1018E000000200B275490979084376490880084624
:1018F000B0F9000000EE100AB8EEC00A7248D0ED50
:10190000000A20EE200AD4ED080A20EE200A84ED19
:10191000020AFFF73BFF08226849002000F038F96F
:10192000FFF72AFF654800780F284FD164480078F8
:10193000F0B36248C078000200B260498978084379
:101940006049088094ED090A0846B0F9000000EEED
:10195000900AF8EEE00A5D4890ED001A10EE810A58
:1019600084ED030A55484079000200B253490979D1
:1019700008435449088094ED0A0A0846B0F900006B
:1019800000EE900AF8EEE00A504890ED001A10EED2
:10199000810A84ED040A4948C079000200B247492F
:1019A000897908434749088094ED0B0A084600E00E
:1019B0000DE0B0F9000000EE900AF8EEE00A4348AE
:1019C00090ED001A10EE810A84ED050A44E03B48D0
:1019D000C078000200B23949897808433949088043
:1019E0000846B0F9000000EE100AB8EEC00A374809
:1019F000D0ED000A20EE200A84ED030A2F4840793A
:101A0000000200B22D49097908432E490880084692
:101A1000B0F9000000EE100AB8EEC00A2B48D0ED75
:101A2000000A20EE200A84ED040A2448C07900024E
:101A300000B2224989790843224908800846B0F952
:101A4000000000EE100AB8EEC00A2048D0ED000AEF
:101A500020EE200A84ED050AFFF784FEA22000F0A4
:101A6000B7F802221549222000F092F8FFF770FE25
:101A700012480078C0001149497840EA61101149C4
:101A800008800846B0F90000B0F5806F05DB084615
:101A90000088A0F5006000B208800A48B0F9000094
:101AA00000EE100AF8EEC00AB4EE001AB3EE070A10
:101AB00000EE810A84ED070A10BD000078000024C2
:101AC0004800002480000024380000243C0000244A
:101AD00070B504460D462248046000202149087074
:101AE0000DF0E6FA1F49097808431E4908700DF009
:101AF00095FB1C49097808431A4908701DB11A481A
:101B000000F032F928E09FED190A174880ED090A24
:101B10009FED170A80ED0A0A9FED160A80ED0B0A69
:101B20009FED150A80ED0C0A9FED140A80ED0D0A59
:101B30009FED130A80ED0E0A9FED120A80ED0F0A49
:101B400090ED0F0ADFED100A80EE801A80ED081A82
:101B50009FED0E0A80ED060A0248007870BD000075
:101B6000840000244200002468080024F0A032BA57
:101B7000B9F3AFBAB1EFBBBA0B6F993E2A98933D58
:101B8000000000007A841D41C3F51C410000204282
:101B900070B506460C46154646F0800000F018F871
:101BA00006E0552000F014F82070641C681EC5B2D1
:101BB000002DF6D170BD70B504460D4644F080008E
:101BC00000F006F8552000F003F8287070BD000002
:101BD00001B582B04FF47A70012301AA02A90090E6
:101BE0000348006806F056FB9DF804000EBD000097
:101BF0008400002470B505460C462846FFF7E8FF30
:101C00002046FFF7E5FF70BDD2ED020A92ED021A01
:101C1000B6EE000A00EEC10AD2ED030A92ED031AF5
:101C200000EEC10AD0ED000A20EE200AD2ED010A32
:101C300092ED021A60EE810A92ED001AD2ED031ABB
:101C400041EE610A90ED011A00EE810AD2ED010A1F
:101C500092ED031A60EE810A92ED001AD2ED021A9B
:101C600041EE210A90ED021A00EE810AF0EE000A20
:101C700020EE200A81ED000A92ED010AD2ED020A5F
:101C800020EE200AD2ED000A92ED031A00EE810A3E
:101C9000D0ED000A60EE200A92ED011AD2ED011A91
:101CA000B6EE000A01EE610AD2ED031A92ED032AA4
:101CB000B0EE401A01EEC21AD0ED011AB0EE600A81
:101CC00001EE210AD2ED020A92ED031A60EE810ABA
:101CD00092ED001AD2ED011A41EE610A90ED021A5E
:101CE00000EE810AF0EE000A20EE200A81ED010AE2
:101CF00092ED010AD2ED030A20EE200AD2ED000A8D
:101D000092ED021A00EEC10AD0ED000A20EE200A80
:101D1000D2ED020A92ED031A60EE810A92ED001AEA
:101D2000D2ED011A41EE210A90ED011A00EE810A6E
:101D300092ED011AD2ED011AF6EE000A41EE610AA7
:101D400092ED021AD2ED021A41EE610A90ED021AEA
:101D500000EE810AF0EE000A20EE200A81ED020A70
:101D6000704700BFFEE7000070B52DED048B88B012
:101D7000044600200690079000F04CFFFE4880EDDE
:101D8000000A00BF00F046FFFB48D0ED000A30EE2D
:101D9000600AF2EE040AB4EEE00AF1EE10FA14DD85
:101DA0009FEDF60A84ED090A9FEDF50A84ED0A0A13
:101DB0009FEDF40A84ED0B0A9FEDF30A84ED0F0A00
:101DC0009FEDF20A84ED060A5FE29FEDF10A00F052
:101DD000DDFE9FEDF00A84ED0F0A9FEDEE0A84ED23
:101DE000090A9FEDEC0A84ED0A0A9FEDEA0A84EDE8
:101DF0000B0A002673E1FFF7B5FC9220FFF7E8FE1F
:101E0000062206A91220FFF7C3FEFFF7A1FC9DF8EA
:101E10001900000200B29DF8181040EA010500EE1A
:101E2000105AB8EEC00ADC48D0ED000A20EE200AB5
:101E300084ED000A9DF81B00000200B29DF81A1004
:101E400040EA010500EE105AB8EEC00AD248D0EDC3
:101E5000000A20EE200A84ED010A9DF81D00000210
:101E600000B29DF81C1040EA010500EE105AB8EED1
:101E7000C00AC948D0ED000A20EE200A84ED020A0B
:101E8000D4ED000A60EEA00A94ED011AD4ED011A17
:101E900041EE210A94ED021AD4ED021A41EE210A14
:101EA000B0EE600A0CF057FCB0EE408A94ED0F0AD9
:101EB00030EE080A84ED0F0AFFF768FC082206A935
:101EC0000020FFF765FEFFF757FC9DF818000F286C
:101ED00050D19DF81B00000200B29DF81A1040EA94
:101EE000010500EE105AB8EEC00AAC48D0ED000A69
:101EF00020EE200A84ED030A94ED090AD4ED030ACA
:101F000030EE200A84ED090A9DF81D00000200B29F
:101F10009DF81C1040EA010500EE105AB8EEC00A08
:101F20009E48D0ED000A20EE200A84ED040A94EDCC
:101F30000A0AD4ED040A30EE200A84ED0A0A9DF85C
:101F40001F00000200B29DF81E1040EA010500EEDD
:101F5000105AB8EEC00A9148D0ED000A20EE200ACF
:101F600084ED050A94ED0B0AD4ED050A30EE200A43
:101F700084ED0B0A06BBF0EE488AB0EE489A0020CA
:101F800017E004F10C0101EB800191ED000A03A9B7
:101F900001EB800181ED000A04F10C0101EB8001ED
:101FA00091ED000A694601EB800181ED000A411CB8
:101FB000C8B20328E5DB49E0B4EEE88AF1EE10FA96
:101FC00001DDF0EE488AB4EEC98AF1EE10FA01D2D2
:101FD000B0EE489A002037E004F10C0101EB8001DB
:101FE00091ED000A03A901EB8001D1ED000AB4EEE6
:101FF000E00AF1EE10FA0ADD04F10C0101EB8001B8
:1020000091ED000A03A901EB800181ED000A04F1C2
:102010000C0101EB800191ED000A694601EB8001A2
:10202000D1ED000AB4EEE00AF1EE10FA0AD204F1A2
:102030000C0101EB800191ED000A694601EB800182
:1020400081ED000A411CC8B20328C5DB38EEC90A7D
:10205000534880ED000A002012E003A901EB800143
:1020600091ED000A694601EB8001D1ED000A30EEE6
:10207000600A4C4901EB800181ED000A411CC8B2A5
:102080000328EADB464890ED000AF6EE000AB4EEBB
:10209000E00AF1EE10FA1BDC424890ED000ADFED99
:1020A000420AB4EEE00AF1EE10FA11DC90ED010AFA
:1020B000DFED3D0AB4EEE00AF1EE10FA08DC90ED37
:1020C000020ADFED390AB4EEE00AF1EE10FA00DDA3
:1020D0000AE09FED360A00F059FD701C86B23448C4
:1020E00000888642FFF687AE00BFD4ED0F0A304865
:1020F000008800EE100AB8EE400A80EE801A84EDE7
:102100000F1A002015E004F1240101EB8001D1ED4C
:10211000000A2749098800EE101AB8EE400A80EE3E
:10212000801A04F1240101EB800181ED001A411CA9
:10213000C8B20328E7DBFFF715FBA220FFF748FD35
:10214000022206A92220FFF723FDFFF701FB9DF8DD
:102150001800C0009DF8191040EA6115B5F5806FB0
:1021600002DBA5F5006005B200EE105AF8EEC00AD9
:10217000B4EE001A1EE0000070000024F0A032BA95
:10218000B9F3AFBAB1EFBBBA7A841D410000204267
:102190000AD7A33B00000000380000243C000024C4
:1021A000440000245C0800249A99193E6F12033AF7
:1021B00074000024B3EE070A00EE810A84ED060ADB
:1021C0007C480088401C00B27A4908807A4890ED2B
:1021D000000AF6EE000AB4EEE00AF1EE10FA3FF75C
:1021E000D1ADD4ED0F0A9FED751A70EEC10AB0EEB5
:1021F000600A0DF0E6FCF6EE000AB4EEE00AF1EE3D
:1022000010FAECDC6E4890ED000A5FED190AB4EEAE
:10221000E00AF1EE10FAE2DC90ED010A5FED1E0A31
:10222000B4EEE00AF1EE10FAD9DC90ED020A5FEDAF
:10223000220AB4EEE00AF1EE10FAD0DCD4ED090A7D
:10224000B0EE600A0DF0BDFCDFED5E0AB4EEE00A10
:10225000F1EE10FAC3DCD4ED0A0AB0EE600A0DF01C
:10226000B0FCDFED580AB4EEE00AF1EE10FAB6DC8D
:10227000D4ED0B0AB0EE600A0DF0A3FCDFED510ABD
:10228000B4EEE00AF1EE10FAA9DC00BF94ED0F0AFB
:10229000DFED4D0A80EE801A84ED081A002680E0FA
:1022A000FFF760FA9220FFF793FC062206A912209E
:1022B000FFF76EFCFFF74CFA9DF81900000200B220
:1022C0009DF8181040EA010500EE105AB8EEC00A59
:1022D0003E48D0ED000A20EE200AD4ED080A20EE98
:1022E000200A84ED000A94ED0C0ADFED390A20EE95
:1022F000200AD4ED000A9FED371A00EE810A84ED22
:102300000C0A9DF81B00000200B29DF81A1040EA6A
:10231000010500EE105AB8EEC00A2C48D0ED000AB4
:1023200020EE200AD4ED080A20EE200A84ED010AEE
:1023300094ED0D0ADFED260A20EE200AD4ED010A05
:102340009FED241A00EE810A84ED0D0A9DF81D0010
:10235000000200B29DF81C1040EA010500EE105A80
:10236000B8EEC00A1948D0ED000A20EE200AD4EDDC
:10237000080A20EE200A84ED020A94ED0E0ADFED31
:10238000140A20EE200AD4ED020A9FED121A00EE84
:10239000810A84ED0E0A1FED7B0A00F0F7FB701C2A
:1023A00086B20D4800888642FFF67AAF08B0BDECD1
:1023B000048B70BD4A00002444000024CDCC1C4195
:1023C0005C0800240AD7233CC3F51C4138000024D4
:1023D000CDCC4C3FCDCC4C3E7600002400BF00F06D
:1023E0005DF8FCE72DE9F04104460D461646002253
:1023F000062104F170000DF066FC0022082104F1B2
:10240000A8000DF060FC0022012104F58E700FF091
:10241000DDFA28460BF040FFDFED1C0A9FED1C0A99
:102420001C4A0021304608F0EDFE00270AE0B4F80F
:10243000A820AC20015B18480DF0A2FB01200EF093
:1024400073F97F1C0A2FF2DB00270AE0B4F8702032
:102450007420015B10480DF093FB01200EF064F92D
:102460007F1C0A2FF2DB00270BE04FF48E70025B1B
:10247000B4F8241108480DF083FB01200EF054F944
:102480007F1C0A2FF1DBBDE8F08100000000000096
:1024900000000243782901082C04002408B502E05A
:1024A00001200EF041F9514890F890000028F7D033
:1024B0004F4A50495048FFF795FF96E04B4A4D4927
:1024C0004D480DF0CDF84A484C4B484A49490090D8
:1024D00049480CF07BFF484890F8C401012844D1DA
:1024E000444890ED1E0AB0EE402A4348B0F8AC10C4
:1024F000DFED431A9FED421ADFED410A9FED400ADE
:1025000040480EF009F8404800680EF00DF93948CF
:1025100090ED1D0AB0EE402A3748B0F87410DFED98
:10252000381A9FED371ADFED360A9FED350A354828
:102530000DF0F2FF344800680EF0F6F82E4890EDEA
:10254000480AB0EE402AB0F82411DFED2D1A9FEDB5
:102550002C1ADFED2B0A9FED2A0A2A480EF054F8B8
:10256000294800680EF0E0F83FE0234890F8C401E5
:10257000D8BB2148B0F8AC109FED212ADFED201A1E
:102580009FED1F1ADFED1E0A9FED1D0A1D480DF07D
:10259000C3FF1D4800680EF0C7F81748B0F8741064
:1025A0009FED172ADFED161A9FED151ADFED140ABD
:1025B0009FED130A13480DF0AFFF134800680EF0AB
:1025C000B3F80D48B0F824119FED0D2ADFED0C1A79
:1025D0009FED0B1ADFED0A0A9FED090A09480EF07C
:1025E00013F8094800680EF09FF867E79881002407
:1025F00074830024C88200246884002430010024ED
:10260000000000002C0400246001002400BF00F042
:1026100057F8FCE72DE9F04104460D461646002226
:10262000062120460DF04FFB0022082104F138005E
:102630000DF049FB0022114604F1E0000FF0C6F94D
:1026400028460BF029FEDFED1A0A9FED1A0A1A4AF6
:102650000021304608F0D6FD002708E0228FA18F28
:1026600016480DF08DFA01200EF05EF87F1C0A2F3F
:10267000F4DB002708E02288A18810480DF080FADA
:1026800001200EF051F87F1C0A2FF4DB00270AE02E
:10269000B4F8E020E820015B08480DF071FA012051
:1026A0000EF042F87F1C0A2FF2DBBDE8F08100003B
:1026B0000000000000000243842901088C0300246C
:1026C00008B502E001200EF02FF8534890F8900072
:1026D0000028F7D0514A52495248FFF79BFF524910
:1026E000524809F067FA52480EF036FE92E04A4A24
:1026F0004B494C480DF056F948484E4B464A48491C
:10270000009048480CF0D2FF464890F8C4010128D8
:1027100042D1434890ED1E0AB0EE402A4148818FD5
:10272000DFED451A9FED441ADFED430A9FED420AA3
:1027300042480DF0F1FE424800680DF0F5FF3848C0
:1027400090ED1D0AB0EE402A36488188DFED3A1A36
:102750009FED391ADFED380A9FED370A37480DF043
:10276000DBFE374800680DF0DFFF2E4890ED390A98
:10277000B0EE402AB0F8E810DFED2F1A9FED2E1AC8
:10278000DFED2D0A9FED2C0A2C480DF03DFF2C4863
:1027900000680DF0C9FF3DE0224890F8C401C8BBB5
:1027A0002048818F9FED242ADFED231A9FED221A06
:1027B000DFED210A9FED200A20480DF0ADFE2048F4
:1027C00000680DF0B1FF174881889FED1B2ADFEDEF
:1027D0001A1A9FED191ADFED180A9FED170A17480C
:1027E0000DF09AFE164800680DF09EFF0D48B0F8F7
:1027F000E8109FED112ADFED101A9FED0F1ADFEDA3
:102800000E0A9FED0D0A0D480DF0FEFE0C48006803
:102810000DF08AFF6BE700009881002448860024B1
:10282000BC83002468840024D88600249086002479
:102830002087002468010024000000008C0300248D
:102840005802002410B5024801F088F910BD0000BC
:10285000F405002410B5024801F080F910BD000015
:102860006C0600240146374A0868904249D0354A30
:1028700018320868904244D0324A30320868904298
:102880003FD0304A4832086890423AD02D4A6032F0
:102890000868904235D02B4A78320868904230D090
:1028A000284A9032086890422BD0264AA8320868FD
:1028B000904226D0244A0868904222D0224A1832F8
:1028C000086890421DD0204A30320868904218D0E3
:1028D0001D4A48320868904213D01B4A603208688B
:1028E00090420ED0184A78320868904209D0164AB1
:1028F00090320868904204D0134AA8320868904287
:1029000001D1012000E00020B0B10A78103A18236C
:10291000B2FBF3F000F007020C4B9A5CCA65032887
:1029200005D90A686FF30902121D8A6503E00A6877
:102930006FF309028A6503E0086820F0FF008865EC
:10294000886D70471000024010040240DC28010826
:1029500010B502682B4C0368A34222D0294C1434D2
:102960000368A3421DD0274C28340368A34218D023
:10297000244C3C340368A34213D0224C50340368E7
:10298000A3420ED01F4C64340368A34209D01D4CEF
:1029900078340368A34204D01A4C8C340368A342F1
:1029A00001D1012300E000238BB10378083B1424FC
:1029B000B3FBF4F1144B03EB81030366124B80333A
:1029C000436601F01F040123A340836618E00378E7
:1029D000103B1824B3FBF4F10C4B9A4204D80B4B78
:1029E000A83B9A4200D30831094B03EB81030366ED
:1029F000074B8033436601F01F040123A340836625
:102A000010BD00000854025800580258B804024093
:102A1000000802400179A9B3082940D8204B026878
:102A20009A4222D01E4B143302689A421DD01C4B8E
:102A3000283302689A4218D0194B3C3302689A42F4
:102A400013D0174B503302689A420ED0144B6433A4
:102A500002689A4209D0124B783302689A4204D035
:102A60000F4B8C3302689A4201D1012200E0002210
:102A70004AB14A1E0B4B03EB8202C266094A40323E
:102A8000026708E00BE04A1E074B03EB8202C266B6
:102A9000054A403202674A1E01239340436770474C
:102AA000085402580059025800090240014600200B
:102AB0008A69D2B98A6A32B1012A0DD0022A03D0BA
:102AC000032A10D10EE000BFCA6A02F08072B2F190
:102AD000807F00D1012007E0CA6AB2F1C07F00D137
:102AE000012001E000E000BF36E08A69B2F5005F36
:102AF0001BD18A6A32B1012A07D0022A03D0032AE5
:102B000011D10AE000BF01200EE0CA6A02F0807213
:102B1000B2F1807F00D1012006E0CA6AB2F1C07F25
:102B200000D1012000E000BF16E08A6A32B1012A1C
:102B300005D0022A04D0032A0CD103E000BF00BF55
:102B4000012008E0CA6A02F08072B2F1807F00D1F1
:102B5000012000E000BF00BF7047000008B5084832
:102B600040680090074900980968884204D20648E6
:102B70000068401C0449086002490098086008BDCC
:102B8000001000E058030024540300240C49486856
:102B9000F0EE400A00BF0A494968091A01EE101A0E
:102BA000F8EE411A074991ED001AB8EE411A20EEED
:102BB000811AF4EEC11AF1EE10FAECD3704700005E
:102BC000001000E04803002410B52DED028B82B008
:102BD00004460E484068019020680199081A00EEEA
:102BE000100AF8EE400A0A4890ED000AB8EE400AD2
:102BF00080EE801AB0EE418A01982060FFF7AEFFA8
:102C0000B0EE480A02B0BDEC028B10BD001000E02F
:102C10004803002410B52DED028B00F059F80F4841
:102C200090ED000AB8EE400A808800EE900AF8EEB7
:102C3000600A9FED0B1A00EE810A0848C08800EE7A
:102C4000900AF8EE600A9FED071A00EE810AB0EED6
:102C5000408AB0EE480ABDEC028B10BD4003002450
:102C60006F12833ABD3786351249096841F0807189
:102C7000104A11600021104A51601146096841F064
:102C8000010111600D4941430D4A11601146096867
:102C90004FF47A72B1FBF2F10A4A116008490968EF
:102CA000064AB1FBF2F1084A11600021074A11609F
:102CB00070470000FCED00E0001000E040420F0013
:102CC000480300244C030024500300245403002430
:102CD00038B5294840680090FFF740FF2748006852
:102CE0004FF0FF31A0FB01310098181841F10001AD
:102CF000234A03C2234800232149026803C9FDF780
:102D000061FB214A03C220480CC81E480068002409
:102D1000A2FB001503FB005002FB04021848D0E997
:102D20000030591A60EB0200184AC2E90010164838
:102D3000006817490860174800231449026803C94E
:102D4000FDF740FB124988800846808811490968D0
:102D500041430E48D0E90030591A60F100000E4A94
:102D6000C2E900100D4800230B49026803C9FDF7B2
:102D700029FB0749C88038BD001000E05403002437
:102D80006003002448030024680300247003002427
:102D9000400300244C030024780300245003002443
:102DA0007047D2ED020A92ED021AB6EE000A00EE6A
:102DB000C10AD2ED030A92ED031A00EEC10AD0ED6A
:102DC000000A20EE200AD2ED010A92ED021A60EE0E
:102DD000810A92ED001AD2ED031A41EE210A90ED1C
:102DE000011A00EE810AD2ED010A92ED031A60EE9B
:102DF000810A92ED001AD2ED021A41EE610A90EDBD
:102E0000021A00EE810AF0EE000A20EE200A81ED9F
:102E1000000A92ED010AD2ED020A20EE200AD2ED5C
:102E2000000A92ED031A00EEC10AD0ED000A60EE2E
:102E3000200A92ED011AD2ED011AB6EE000A01EE57
:102E4000610AD2ED031A92ED032AB0EE401A01EEA8
:102E5000C21AD0ED011AB0EE600A01EE210AD2EDDD
:102E6000020A92ED031A60EE810A92ED001AD2ED89
:102E7000011A41EE210A90ED021A00EE810AF0EEED
:102E8000000A20EE200A81ED010A92ED010AD2ED3E
:102E9000030A20EE200AD2ED000A92ED021A00EE9B
:102EA000810AD0ED000A20EE200AD2ED020A92ED4E
:102EB000031A60EE810A92ED001AD2ED011A41EE7A
:102EC000610A90ED011A00EE810A92ED011AD2ED2D
:102ED000011AF6EE000A41EE610A92ED021AD2EDF5
:102EE000021A41EE610A90ED021A00EE810AF0EE3C
:102EF000000A20EE200A81ED020A704772B600BF78
:102F0000FEE7000000B589B0002001900290022089
:102F100003900120049000200590069001A910481C
:102F200001F0D3FE08B1FFF7E9FF002003460222BB
:102F3000114600900A4801F01CFF08B1FFF7DEFFC0
:102F400000220121064801F023FE08B1FFF7D6FF59
:102F5000034802F0D9FC08B1FFF7D0FF09B000BD6B
:102F60008C03002410B5024802F01CF810BD0000CC
:102F70008C03002400B589B000200190012002904C
:102F800002200390049000200590069001A91048AB
:102F900001F09BFE08B1FFF7B1FF002003460222BB
:102FA000114600900A4801F0E4FE08B1FFF7A6FFC1
:102FB00000221021064801F0EBFD08B1FFF79EFF4B
:102FC000034802F0A1FC08B1FFF798FF09B000BD6B
:102FD0002C04002410B5024801F0E4FF10BD0000ED
:102FE0002C04002410B5024801F0DCFF10BD0000E5
:102FF000CC04002410B501464A6B0868D0F8840060
:103000004FF6FC74A04340EA82000C68C4F88400C8
:103010000868D0F8840020F47F04088F44EA004058
:103020000C68C4F88400886B02440868D0F88800F3
:103030004FF6FC74A04340EA82000C68C4F8880094
:103040000868D0F8880020F4FE04888F44EA004025
:103050000C68C4F88800C86B02EB40020868D0F81E
:10306000A0004FF6FC74A04340EA82000C68C4F84C
:10307000A0000868D0F8A00020F4FE044020405AC8
:1030800044EA00400C68C4F8A000D1E9104004FBF9
:1030900000220868D0F8B0004FF6FC74A04340EA64
:1030A00082000C68C4F8B0000868D0F8B00020F4C2
:1030B000FE04B1F8480044EA00400C68C4F8B000CF
:1030C000D1E9124004FB00220868D0F8AC004FF6AA
:1030D000FC74A04340EA82000C68C4F8AC00D1E95B
:1030E000144004FB00220868D0F8F0004FF6FC748E
:1030F000A04340EA82000C68C4F8F0000868D0F8E9
:10310000F00020F47C14B1F8580044EA00400C6848
:10311000C4F8F000886D02EB40020868D0F8C000E7
:103120004FF6FC74A04340EA82000C68C4F8C0006B
:103130000868D0F8C00020F47C14B1F85C0044EAC0
:1031400000400C68C4F8C0000868D0F8C00020F047
:103150007C5491F8600044EA00600C68C4F8C00038
:103160002A4C486B04EB8000C866CC6E886B04EB7D
:1031700080040C670C6FC86B04EBC0044C67D1E98A
:10318000100460434C6F04EB80048C67D1E9120497
:1031900060438C6F04EB8004CC67D1E91404604376
:1031A000CC6F04EB8004802044504458886D04EBBD
:1031B000C004842044508C6EC86D604384246458DD
:1031C00004EB8004882044508C6E086E6043882491
:1031D000645804EB80049020445040580C4CA042AA
:1031E00009D99831486840F020004860032001F870
:1031F0009809012010BDCB6E02E0002018601B1D55
:10320000902040589842F8D80020F3E700AC0040E6
:10321000FCD300402DE9F041054614461E46D1F886
:1032200004C0BCF1000F0AD1D1F810C0D1F8088059
:103230004CEA080CB1F800804CEA88430BE0D1F866
:1032400010C04CF0804CD1F808804CEA080CD1F842
:1032500000804CEA080391F82080D1F81CC04CEAA9
:10326000086CD1F818804CEA080CD1F814804CEAAC
:10327000080CD1F80C804CEA0807D5F868C00CFBA4
:1032800006FCD5F8848008EB8C021360121D1760D1
:10329000121D002019E000F1030C14F80CC04FEAD5
:1032A0000C6800F1020C14F80CC048EA0C4800F15C
:1032B000010C14F80CC048EA0C2C14F800804CEAFD
:1032C000080CC2F800C0121D001DDFF81880D1F8EC
:1032D0000CC008EB1C4C9CF800C08445DBD8BDE852
:1032E000F0810000E42801082DE9F041044602F0D5
:1032F00035FC804614B90120BDE8F08194F8350012
:10330000022808D08020606500BF002084F83400C7
:1033100000BF0120F0E7FE492068884249D0FC49FF
:1033200018312068884244D0F949303120688842F9
:103330003FD0F7494831206888423AD0F44960319B
:103340002068884235D0F24978312068884230D0F0
:10335000EF499031206888422BD0ED49A831206890
:10336000884226D0EB492068884222D0E9491831AA
:10337000206888421DD0E74930312068884218D043
:10338000E44948312068884213D0E249603120681E
:1033900088420ED0DF4978312068884209D0DD4963
:1033A00090312068884204D0DA49A83120688842E8
:1033B00001D1012000E0002068B12068006820F001
:1033C0001E00216808602068406920F080002168A4
:1033D0004861256806E02068006820F00E0021683A
:1033E00008602568CA492068884270D0C8491831E9
:1033F000206888426BD0C64930312068884266D048
:10340000C34948312068884261D0C1496031206891
:1034100088425CD0BE4978312068884257D0BC4988
:1034200090312068884252D0B949A831206888423A
:103430004DD0B8492068884249D0B6491831206833
:10344000884244D0B3493031206888423FD0B149E6
:103450004831206888423AD0AE49603120688842BD
:1034600035D0AC4978312068884230D0A9499031B4
:10347000206888422BD0A749A8312068884226D0EE
:10348000A5492068884222D0A34914312068884287
:103490001DD0A14928312068884218D09E493C316E
:1034A0002068884213D09C495031206888420ED051
:1034B000994964312068884209D097497831206859
:1034C000884204D094498C312068884201D101207F
:1034D00000E0002028B1206E006820F48070216E8A
:1034E00008608B492068884249D089491831206892
:1034F000884244D086493031206888423FD0844990
:103500004831206888423AD0814960312068884239
:1035100035D07F4978312068884230D07C4990315D
:10352000206888422BD07A49A8312068884226D06A
:1035300078492068884222D076491831206888422C
:103540001DD0744930312068884218D07149483103
:103550002068884213D06F496031206888420ED0BD
:103560006C4978312068884209D06A4990312068D6
:10357000884204D06749A8312068884206D1206873
:10358000006820F001002168086005E020680068FC
:1035900020F001002168086011E002F0DFFAA0EBE2
:1035A000080005280BD920206065032084F8350029
:1035B00000BF002084F8340000BF01209CE628688A
:1035C00000F001000028E8D151492068884249D024
:1035D0004F4918312068884244D04D493031206825
:1035E00088423FD04A494831206888423AD0484909
:1035F00060312068884235D045497831206888425A
:1036000030D043499031206888422BD04049A831BE
:103610002068884226D03F492068884222D03D4910
:103620001831206888421DD03A49303120688842DC
:1036300018D0384948312068884213D03549603164
:10364000206888420ED0334978312068884209D0FA
:10365000304990312068884204D02E49A831206832
:10366000884201D1012000E0002040B1A66D94F80D
:103670005C0000F01F013F208840B06007E0A76DAC
:1036800094F85C0000F01F01012088407860204918
:103690002068884276D01E4918312068884271D04F
:1036A0001B493031206888426CD019494831206864
:1036B000884267D0164960312068884262D0144938
:1036C0007831206888425DD0114990312068884265
:1036D00058D00F49A8312068884253D00D4920683E
:1036E00088424FD00B491831206888424AD0094996
:1036F00030312068884245D00649483120688842E8
:1037000040D004496031206888423BD0014905E03F
:10371000100002401004024008540258783120681A
:1037200088422FD02549206888422BD02349183160
:103730002068884226D022492068884222D0204929
:103740001431206888421DD01D49283120688842E4
:1037500018D01B493C312068884213D01849503199
:10376000206888420ED0164964312068884209D00A
:10377000134978312068884204D011498C3120687F
:10378000884201D1012000E0002068B1D4E919107D
:103790004860E06E40B1E06E006820F48070E16E39
:1037A0000860D4E91C104860012084F8350000BF8F
:1037B000002084F8340000BF00BF9DE5A004024053
:1037C0000854025870B504460CB9012070BD94F835
:1037D0003500022803D0802060650120F6E7DC492F
:1037E0002068884249D0DA4918312068884244D09C
:1037F000D7493031206888423FD0D54948312068C8
:1038000088423AD0D24960312068884235D0D049C8
:1038100078312068884230D0CD4990312068884284
:103820002BD0CB49A8312068884226D0C9492068CE
:10383000884222D0C7491831206888421DD0C54926
:1038400030312068884218D0C24948312068884207
:1038500013D0C0496031206888420ED0BD4978310C
:103860002068884209D0BB4990312068884204D042
:10387000B849A8312068884201D1012000E0002029
:10388000F0B3042084F83500B149206888424BD059
:10389000AF4918312068884246D0AD4930312068A0
:1038A000884241D0AA494831206888423CD0A84982
:1038B00060312068884237D0A54978312068884235
:1038C00032D0A3499031206888422DD0A049A83138
:1038D0002068884228D09F492068884224D09D498A
:1038E0001831206888421FD09A49303120688842B8
:1038F0001AD0984948312068884215D0954900E08F
:1039000020E06031206888420ED0924978312068EA
:10391000884209D08F4990312068884204D08D496F
:10392000A8312068884206D12068006820F0010094
:103930002168086009E12068006820F00100216822
:10394000086002E12068006820F00E00216808602D
:103950007F492068884249D07D49183120688842D3
:1039600044D07B493031206888423FD07849483183
:10397000206888423AD0764960312068884235D044
:10398000734978312068884230D07149903120687D
:1039900088422BD06E49A8312068884226D06D49D4
:1039A0002068884222D06B491831206888421DD097
:1039B000684930312068884218D06649483120680B
:1039C000884213D063496031206888420ED0614933
:1039D00078312068884209D05E4990312068884259
:1039E00004D05C49A8312068884206D1206800686C
:1039F00020F001002168086005E02068006820F0E0
:103A000001002168086052492068884270D05049FE
:103A10001831206888426BD04D4930312068884287
:103A200066D04B4948312068884261D048496031AE
:103A3000206888425CD0464978312068884257D057
:103A4000434990312068884252D04149A8312068CA
:103A500088424DD03F492068884249D03D491831BD
:103A60002068884244D03B493031206888423FD0AA
:103A700038494831206888423AD036496031206858
:103A8000884235D0334978312068884230D0314976
:103A90009031206888422BD02E49A8312068884276
:103AA00026D02D492068884222D02B491431206825
:103AB00088421DD0284928312068884218D02649DC
:103AC0003C312068884213D0234950312068884215
:103AD0000ED0214964312068884209D01E497831CE
:103AE0002068884204D01C498C312068884201D16A
:103AF000012000E00020D8B1206E006820F4807022
:103B0000216E0860A56D94F85C0000F01F01012093
:103B100088406860D4E919104860E06E40B1E06EFA
:103B2000006820F48070E16E0860D4E91C104860E1
:103B3000012084F8350000BF002084F8340000BF65
:103B4000206D10B12046216D884700203EE6000020
:103B50001000024010040240085402582DE9F84FAA
:103B6000044600200090FE4800684FF41651B0FB58
:103B7000F1FAA66DD4F858803768D8F80090F94962
:103B80002068884249D0F74918312068884244D0DB
:103B9000F4493031206888423FD0F24948312068EA
:103BA00088423AD0EF4960312068884235D0ED49EB
:103BB00078312068884230D0EA49903120688842C4
:103BC0002BD0E849A8312068884226D0E6492068F1
:103BD000884222D0E4491831206888421DD0E24949
:103BE00030312068884218D0DF4948312068884247
:103BF00013D0DD496031206888420ED0DA4978312F
:103C00002068884209D0D84990312068884204D081
:103C1000D549A8312068884201D1012000E0002068
:103C200000287DD094F85C0000F01F010820884037
:103C30003840002868D0CB492068884249D0C9491B
:103C400018312068884244D0C64930312068884203
:103C50003FD0C4494831206888423AD0C1496031D8
:103C60002068884235D0BF4978312068884230D0FA
:103C7000BC499031206888422BD0BA49A8312068CD
:103C8000884226D0B8492068884222D0B6491831E7
:103C9000206888421DD0B44930312068884218D04D
:103CA000B14948312068884213D0AF49603120685B
:103CB00088420ED0AC4978312068884209D0AA49A0
:103CC00090312068884204D0A749A83120688842F2
:103CD00004D12068006800F0040003E02068006858
:103CE00000F0080080B12068006820F0040021681E
:103CF000086094F85C0000F01F0108208840B06064
:103D0000606D40F00100606594F85C0000F01F01F8
:103D1000012088403840E8B392492068884200E09A
:103D2000B7E24BD08F4918312068884246D08D4980
:103D300030312068884241D08A4948312068884221
:103D40003CD0884960312068884237D08549783135
:103D50002068884232D083499031206888422DD033
:103D60008049A8312068884228D07F49206888424D
:103D700024D07D491831206888421FD07A493031DB
:103D8000206888421AD0784948312068884215D086
:103D9000754900E026E06031206888420ED0724903
:103DA00078312068884209D06F4990312068884274
:103DB00004D06D49A8312068884204D12068406948
:103DC00000F0800002E020680068002050B194F804
:103DD0005C0000F01F0101208840B060606D40F081
:103DE0000200606594F85C0000F01F010420884028
:103DF0003840E8B35B49206888424BD059491831B4
:103E00002068884246D0574930312068884241D0E6
:103E100054494831206888423CD05249603120687A
:103E2000884237D04F4978312068884232D04D4996
:103E30009031206888422DD04A49A83120688842B4
:103E400028D049492068884224D047491831206841
:103E500088421FD044493031206888421AD04249F4
:103E600048312068884215D03F496031206800E021
:103E700024E088420ED03C4978312068884209D03D
:103E8000394990312068884204D03749A8312068E8
:103E9000884204D12068006800F0020002E0206837
:103EA0000068002050B194F85C0000F01F0104206D
:103EB0008840B060606D40F00400606594F85C007C
:103EC00000F01F01102088403840E8B325492068E1
:103ED000884251D023491831206888424CD021496A
:103EE00030312068884247D01E49483120688842D6
:103EF00042D01C496031206888423DD01949783150
:103F00002068884238D0174990312068884233D0E1
:103F10001449A831206888422ED01349206888426D
:103F20002AD0114918312068884225D00E493031F5
:103F30002068884220D00C494831206888421BD034
:103F400009496031206800E04DE0884214D00649FC
:103F50007831206888420FD003499031206805E00D
:103F6000300000241000024010040240884203D0B8
:103F7000FE492068884204D12068006800F00800EB
:103F800003E02068006800F0040060B394F85C006F
:103F900000F01F0110208840B0602068006800F425
:103FA000802080B12068006800F4002028B9206CCF
:103FB000C8B12046216C884715E0A06C98B1204616
:103FC000A16C88470FE02068006800F4807028B971
:103FD0002068006820F0080021680860206C10B19B
:103FE0002046216C884794F85C0000F01F012020D7
:103FF0008840384000287DD0DD492068884249D07B
:10400000DB4918312068884244D0D94930312068D2
:1040100088423FD0D6494831206888423AD0D449B6
:1040200060312068884235D0D14978312068884293
:1040300030D0CF499031206888422BD0CC49A8316C
:104040002068884226D0C949A8392068884221D0F2
:10405000C6499039206888421CD0C4497839206804
:10406000884217D0C14960392068884212D0BF49C0
:104070004839206888420DD0BC49303920688842D0
:1040800008D0BA4918392068884203D0B749206857
:10409000884204D12068006800F0100003E0206826
:1040A000006800F0020028B394F85C0000F01F01E3
:1040B00020208840B06094F8350004282DD1206875
:1040C000006820F01600216808602068406920F030
:1040D000800021684861206C08B9A06C28B1206874
:1040E000006820F008002168086094F85C0000F087
:1040F0001F0100E03FE03F208840B060012084F8CD
:10410000350000BF002084F8340000BF206D10B1DE
:104110002046216D8847BDE8F88F2068006800F4CC
:10412000802080B12068006800F4002028B9606C0D
:1041300008B32046616C88471DE0E06BD8B120468B
:10414000E16B884717E02068006800F4807068B968
:104150002068006820F0100021680860012084F8C1
:10416000350000BF002084F8340000BFE06B10B1C0
:104170002046E16B8847606D00287AD0606D00F0C2
:104180000100E8B3042084F83500794920688842AA
:104190004BD0774918312068884246D07449303175
:1041A0002068884241D072494831206888423CD01A
:1041B0006F4960312068884237D06D497831206876
:1041C000884232D06A499031206888422DD06849AF
:1041D000A8312068884228D06449A83920688842DC
:1041E00023D062499039206888421ED05F497839CF
:1041F0002068884219D05D4960392068884200E013
:1042000040E012D059494839206888420DD05749BA
:1042100030392068884208D05449183920688842CB
:1042200003D052492068884206D12068006820F0F7
:1042300001002168086005E02068006820F00100A6
:104240002168086000BF0098401C0090504500D9CC
:1042500005E02068006800F001000028F3D100BFED
:104260002068006800F0010020B1032084F83500C8
:1042700003E00DE0012084F8350000BF002084F841
:10428000340000BFE06C002802D02046E16C884773
:10429000D9E138492068884222D036491431206853
:1042A00088421DD0334928312068884218D03149CE
:1042B0003C312068884213D02E4950312068884212
:1042C0000ED02C4964312068884209D029497831C0
:1042D0002068884204D027498C312068884201D167
:1042E000012000E000200028D2D02068056894F862
:1042F0005C0000F01F010420884000EA0900D8B3E8
:1043000005F00400C0B394F85C0000F01F01042025
:104310008840C8F8040005F4004080B105F48030FE
:1043200030B9A06C0028B3D02046A16C88478AE140
:10433000206C0028ACD02046216C884783E105F032
:104340002000E8BB0A492068884253D00849183148
:10435000206888424ED0064930312068884249D0D2
:10436000034948312068884244D006E0B80402403E
:1043700010000240085402584FE0B44960312068F0
:10438000884237D0B14978312068884232D0AF496D
:104390009031206888422DD0AC49A83120688842ED
:1043A00028D0AB492068884224D0A9491831206818
:1043B00088421FD0A6493031206888421AD000E0D8
:1043C00025E0A34948312068884213D0A0496031D4
:1043D000206888420ED09E4978312068884209D0F2
:1043E0009B4990312068884204D09949A8312068BF
:1043F000884206D12068006820F008002168086023
:1044000005E02068006820F0040021680860206C46
:1044100010B32046216C884715E194F85C0000F049
:104420001F010220884000EA0900E8B305F00200FD
:10443000D0B394F85C0000F01F0102208840C8F857
:10444000040005F4004070B105F4803028B9606CB8
:1044500010B12046616C8847F5E0E06BF0B3204670
:10446000E16B8847EFE005F02000C0BB774920688A
:1044700088424ED0754918312068884249D0734926
:1044800030312068884244D07049483120688842E1
:104490003FD06E496031206888423AD06B4978310C
:1044A0002068884235D000E04EE0684990312068AD
:1044B00088422ED06549A8312068884229D06449B5
:1044C0002068884225D0624918312068884220D06F
:1044D0005F493031206888421BD001E06EE02DE05A
:1044E0005B4948312068884213D0594960312068BF
:1044F00088420ED0564978312068884209D0544904
:1045000090312068884204D05149A83120688842FF
:1045100006D12068006820F014002168086005E0DA
:104520002068006820F00A0021680860012084F8F3
:10453000350000BF002084F8340000BFE06BE8B312
:104540002046E16B88477EE094F85C0000F01F0194
:104550000820884000EA090080B305F0080068B32D
:104560003A49206888424BD038491831206888423F
:1045700046D0364930312068884241D033494831ED
:10458000206888423CD0314960312068884237D069
:104590002E4978312068884232D02C4990312068E9
:1045A00088422DD02949A8312068884228D028493E
:1045B0002068884224D02649183100E043E0206872
:1045C00088421DD0224930312068884218D02049C5
:1045D00048312068884213D01D49603120688842E4
:1045E0000ED01B4978312068884209D01849903193
:1045F0002068884204D01649A8312068884206D134
:104600002068006820F01C002168086005E0206830
:10461000006820F00E002168086094F85C0000F04B
:104620001F0101208840C8F804000120606584F85B
:10463000350000BF002084F8340000BFE06C10B1EA
:104640002046E16C884700BF65E50000100002408D
:10465000100402402DE9F041044601F07FFA804643
:1046600014B90120BDE8F081FE492068884249D094
:10467000FC4918312068884244D0FA49303120681A
:1046800088423FD0F7494831206888423AD0F549FE
:1046900060312068884235D0F249783120688842FC
:1046A00030D0F0499031206888422BD0ED49A831B4
:1046B0002068884226D0EC492068884222D0EA4906
:1046C0001831206888421DD0E7493031206888427F
:1046D00018D0E54948312068884213D0E24960315A
:1046E000206888420ED0E04978312068884209D09D
:1046F000DD4990312068884204D0DB49A831206828
:10470000884201D1012000E00020002873D0606AB7
:1047100000B100BF022084F8350000BF002084F8FB
:10472000340000BFCF492068884249D0CD491831B4
:104730002068884244D0CB493031206888423FD03D
:10474000C8494831206888423AD0C649603120685B
:10475000884235D0C34978312068884230D0C14979
:104760009031206888422BD0BE49A8312068884209
:1047700026D0BD492068884222D0BB491831206824
:1047800088421DD0B84930312068884218D0B649D7
:1047900048312068884213D0B3496031206888428C
:1047A0000ED0B14978312068884209D0AE499031A5
:1047B0002068884204D0AC49A8312068884206D1DC
:1047C0002068006820F001002168086005E020688A
:1047D000006820F00100216808600DE001F0BEF9DA
:1047E000A0EB0800052807D920206065032084F885
:1047F0003500012036E769E02068006800F001001C
:104800000028EBD12068056898480540D4E90201EA
:1048100008432169084361690843A1690843E169C4
:104820000843216A08430543606A042803D1D4E998
:104830000B01084305436068292802D360682E28CD
:1048400017D960683F2802D36068422811D9606890
:10485000472802D3606848280BD960684F2802D3E4
:104860006068522805D96068742804D36068772886
:1048700001D8012000E0002008B145F4801520682F
:1048800005602068456925F00705606A0543606A90
:1048900004280DD1A06A0543E06A48B12046FEF71E
:1048A00005F928B140206065012084F83500D9E67B
:1048B000206845612046FDF7D5FF064694F85C0068
:1048C00000F01F013F208840B0609EE068492068EA
:1048D000884222D066491431206888421DD064493C
:1048E00028312068884218D061493C3120688842CC
:1048F00013D05F495031206888420ED05C49643142
:104900002068884209D05A4978312068884204D00A
:1049100057498C312068884201D1012000E00020F5
:10492000E0B353492068884222D0514914312068AD
:1049300088421DD04E4928312068884218D04C4901
:104940003C312068884213D0494950312068884260
:104950000ED0474964312068884209D044497831F3
:104960002068884204D042498C312068884201D1B5
:10497000012000E0002000B100BF022084F83500D3
:1049800000BF002084F8340000BF20680568394863
:104990000540A068402802D1102106E02EE0A06862
:1049A000802801D1C10100E00021E06841EAD00186
:1049B000206941EAD001606941EAD001A06941EA79
:1049C000D001E06941EAD001206A41EA10100543B4
:1049D0002068056026492068401A1421B0FBF1F0D8
:1049E0008000E0652046FDF73DFF074694F85C0037
:1049F00000F01F0101208840786006E040206065DB
:104A0000032084F8350001202CE6164920688842EE
:104A10007AD0144918312068884275D01149303154
:104A20002068884270D00F494831206888426BD096
:104A30000C4960312068884266D00A497831206884
:104A4000884261D007499031206888425CD005498E
:104A5000A8312068884257D003492068884253D043
:104A6000014909E010000240100402403F8010FE9E
:104A7000085402580F00FEFF18312068884243D0C6
:104A80003749206888423FD035491831206888422C
:104A90003AD0334930312068884235D030494831E6
:104AA0002068884230D02E496031206888422BD05F
:104AB0002B4978312068884226D02A4920688842CC
:104AC00022D028491431206888421DD02549283138
:104AD0002068884218D023493C312068884213D08E
:104AE00020495031206888420ED01E496431206828
:104AF000884209D01B4978312068884204D019497E
:104B00008C312068884201D1012000E0002000B3F0
:104B10002046FDF71DFFA068802801D100206060BD
:104B20002079216E0860D4E919104860606860B18E
:104B30006068082809D82046FDF76CFF0020E16E68
:104B40000860D4E91C10486003E00020E06620679C
:104B5000606700206065012084F83500002081E551
:104B6000400402400854025870B5044600F0F6FFB5
:104B700006462546681C10B104480078054400BF6D
:104B800000F0ECFF801BA842FAD370BD2C0000247B
:104B900030B5034693F89840012C01D0022C3ED149
:104BA0001868806D084030B91868C06D40F0010089
:104BB0001D68E8650EE01868806D0840884206D1DF
:104BC0001868C06D40F002001D68E86502E003202F
:104BD0001D68E86501F4007030B11868D0F8E00095
:104BE00010431D68C5F8E00001F4806030B118681A
:104BF000D0F8E40010431D68C5F8E40000BF186851
:104C0000406D0B4D0D4028431D68686509480068DC
:104C100040EA9170074D286000BF002030BDD3F8F6
:104C20009C0040F00200C3F89C000120F6E7000061
:104C3000FFFFCF3F14A800402DE9F04104460E4687
:104C40001746706800B900E000BF94F89800022889
:104C500032D12068D0F8C00000F07C5040B9D4F8C0
:104C60009C0040F02000C4F89C000120BDE8F081C9
:104C70002068D0F8C40000F4001038B1D4F89C00CB
:104C800040F40070C4F89C000120EFE72068D0F8E1
:104C9000C400C0F304452B463A4631462046FEF791
:104CA000B9FA0120A8402168C1F8D0000120A8402D
:104CB000C4F894000020D9E7D4F89C0040F0080024
:104CC000C4F89C000120D1E77047F0B5024692F885
:104CD0009860012E01D0022E43D1C868072800D168
:104CE00000BF086818BBC868072800D000BFC868A4
:104CF00007280BD1088A4FF0605747EA0040CF6978
:104D000040EA07208F6940EA07040AE0087A800732
:104D10000F7B40EAC7600F8A40EA07404F6940EACC
:104D20000704D76E486807EB80031C6017E0C8686B
:104D3000072800D000BF0F7B086940EA4774C868A5
:104D4000072801D18D6903E00F7A486940EA877529
:104D5000176F486807EBC0031C601B1D1D60002017
:104D6000F0BDD2F89C0040F00200C2F89C00012087
:104D7000F6E770B50446049D94F8980001280AD11E
:104D8000080140EA820040EA430028432668C6F84A
:104D90008000002070BDD4F89C0040F00400C4F8EE
:104DA0009C000120F6E77047704700002DE9F043B2
:104DB00004460D469C46002394F89880B8F1020FF3
:104DC00074D1402D38D12068D0F8A00000F4FE0046
:104DD00040B9D4F89C0040F02000C4F89C000120A9
:104DE000BDE8F0832068D0F8A40000F07F0038B957
:104DF000D4F89C0040F48070C4F89C000120EFE7D8
:104E00002068D0F8A400C0F3006040B12068D0F85A
:104E1000A0004FF00049B9EBD07F00D101232068FA
:104E2000D0F8A400C0F305200344606C5843D4F8C4
:104E3000749009EB80014BE0412D38D12068D0F807
:104E4000B00000F4FE0038B9D4F89C0040F0200017
:104E5000C4F89C000120C3E72068D0F8B40000F03B
:104E60007F0038B9D4F89C0040F48070C4F89C00EE
:104E70000120B5E72068D0F8B400C0F3006040B16D
:104E80002068D0F8B0004FF00049B9EBD07F00D1D6
:104E900001232068D0F8B400C0F305200344E06C7F
:104EA0005843D4F8789009EB800111E06EE0206D52
:104EB000A84207D8D4F89C0040F02000C4F89C0019
:104EC00001208DE7606D6843D4F87C9009EB800188
:104ED000086800F080405060506820B90868C0F34E
:104EE0008A40106003E0086820F0604010600868A5
:104EF00000F000509060086800F000401061091D4B
:104F0000088880B2D061086800F47020D06008681A
:104F100000F480105061086800F400109061086887
:104F2000C0F3066010620868C00F5062091D0F468A
:104F3000002603E0B85D0CF80600761CDFF85C90F4
:104F4000D06809EB10400078B042F3D8402D03D16F
:104F50002068C0F8A83017E0412D03D12068C0F8C0
:104F6000B83011E0202D06D20120A840D4F80090DE
:104F7000C9F8980008E005F01F09012000FA09F0BF
:104F8000D4F80090C9F89C00002029E7D4F89C00D0
:104F900040F00800C4F89C00012021E7E428010843
:104FA000704700002DE9F04F8DB00446EF480068CF
:104FB0008707EE48001D006807EA80772068006DCB
:104FC00000F470482068406D00EA08082068006D11
:104FD00000F00F092068406D00EA09092068006DA3
:104FE00000F0F00A2068406D00EA0A0A2068006DAF
:104FF00000F0715B2068406D00EA0B0B2068006DCB
:1050000000F060700C902068406D0C9908400C9086
:105010002068456D2068066DC5F3002070B1C6F3A9
:10502000002058B100BF4FF480702168086500204F
:10503000CE49086000BF2046FFF7B2FFC5F38020CD
:10504000C8B1C6F38020B0B12068D0F8DC000A9067
:105050002068D0F8E4000A9908400A9000BF4FF495
:105060008060216808650020C049086000BF2046B4
:105070000A9900F069FC67B100BFBD48384021685B
:105080000865B80FB949086000BF39462046FFF7E8
:105090001BFEB8F1000F0ED000BFB54808EA0000B3
:1050A000216808654FEA9870B049086000BF414622
:1050B000204600F04BFCB9F1000F0ED000BFAC4809
:1050C00009EA0000216808654FEA9970A74908605D
:1050D00000BF4946204600F09BFBBAF1000F0ED0FE
:1050E00000BFA3480AEA0000216808654FEA9A70E9
:1050F0009E49086000BF5146204600F0C7FBC5F33B
:10510000C02070B1C6F3C02058B100BF4FF400609A
:105110002168086500209549086000BF204600F01E
:1051200016FCC5F34020C8B1C6F34020B0B12068DA
:10513000D0F8D8000B902068D0F8E0000B99084018
:105140000B9000BF4FF4007021680865002087496C
:10515000086000BF20460B9900F0F7FBC5F3C04084
:1051600070B1C6F3C04058B100BF4FF400202168B1
:10517000086500207D49086000BF204600F046FB1E
:10518000C5F3004070B1C6F3004058B100BF4FF402
:1051900080302168086500207449086000BF2046FF
:1051A00000F0D1FBC5F3804070B1C6F3804058B128
:1051B00000BF4FF480202168086500206B4908601B
:1051C00000BF204600F0BEFBC5F3404088B1C6F3E7
:1051D000404070B100BF4FF40030216808650020E6
:1051E0006249086000BFD4F89C0040F08000C4F819
:1051F0009C000C9870B100BF5D490C980840216874
:1052000008650C98800F5949086000BF20460C992A
:10521000FFF7CAFDBBF1000F10D000BF54480BEAE6
:105220000000216808654FEA9B705049086000BF84
:10523000D4F89C0040EA0B00C4F89C004D4920685B
:1052400088427DD16068806800F00300002877D034
:105250006068006A00F00F0009906068406A099970
:10526000084009906068006A00F0300008906068AB
:10527000406A0899084008906068006A00F4C070AD
:1052800007906068406A0799084007906068006A64
:1052900000F4FC4006906068406A06990840069059
:1052A0006068006A00F4F02005906068406A059923
:1052B000084005906068406A02906068006A01904A
:1052C000099830B10998616808622046099900F090
:1052D00036FB089830B10898616808622046089942
:1052E00000F02FFB0298C0F38010A0B10198C0F32A
:1052F000801080B16068C06B000C04906068C06B67
:1053000000F03F0003904020616808622046DDE91C
:10531000032100F015FB079830B107986168086217
:105320002046079900F00AFB069840B1069861688C
:105330000862D4F89C0006990843C4F89C0000E079
:105340000AE0059840B1059861680862D4F89C00AD
:1053500005990843C4F89C00D4F89C0010B120467D
:10536000FFF721FD0DB0BDE8F08F000010A8004050
:10537000FFFFCF3F00A0004070B594B004464C2220
:10538000B34901A8FBF74FF814B9012014B070BD60
:10539000B0492068884203D1206800F580706060C1
:1053A000A068B0F5407F00D100BF206C00B100BF05
:1053B000A06C00B100BF206D00B100BF206E00B135
:1053C00000BFD4E91710084400B100BF94F898005A
:1053D00028B9002084F89900204600F03DF92068A3
:1053E000806920F010002168886100F0B7FB054655
:1053F0000EE000F0B3FB401B0A2809D9983460681E
:1054000040F001006060032004F898090120BDE726
:105410002068806900F008000828EAD020688069C8
:1054200040F001002168886100F098FB05460EE01D
:1054300000F094FB401B0A2809D99834606840F0BA
:1054400001006060032004F8980901209EE72068AD
:10545000806900F001000028EAD02068806940F0EF
:10546000020021688861207C012806D120688069BB
:1054700020F040002168886105E02068806940F0E4
:10548000400021688861607C012806D1206880691D
:1054900040F480402168886105E02068806920F43C
:1054A000804021688861A07C012806D1206880693D
:1054B00020F480502168886105E02068806940F40C
:1054C0008050216888612068806920F44070A1685C
:1054D0000843216888612068806920F0A400216861
:1054E00088612068006920F0100021680861E06888
:1054F000012806D12068806940F004002168886195
:1055000020E0E068F0B1E068022815D020688069EA
:1055100040F08000216888612068006940F0100038
:1055200021680861E06803280CD12068806940F098
:1055300020002168886105E02068806940F0200033
:1055400021688861207E401E4106E069401E41EAD4
:105550000020216A491E0843A18A491E40EA0140F1
:105560002168C861A068B0F5407F0FD1A06A401ED5
:10557000E16A491E40EA0121206B401E41EA001108
:10558000A08C401E41EA00402168C860206E38B1FE
:105590002068D0F8C000616E08432168C1F8C000DF
:1055A000D4E91710084460B12068D0F8C80020F092
:1055B000070001AAA16E52F8211008432168C1F822
:1055C000C800206C60B12068D0F8BC0020F0070053
:1055D00001AA616C52F8211008432168C1F8BC008F
:1055E000A06C68B12068D0F8BC0020F0700101AA5E
:1055F000E06C52F8200041EA00102168C1F8BC00BC
:10560000206D68B12068D0F8BC0020F4E06101AAE8
:10561000606D52F8200041EA00202168C1F8BC000A
:105620000C492068884205D16068806820F003003A
:1056300061688860002044F8940FA0600120207108
:10564000943C2046FDF7D6FC064630469EE6000018
:10565000F428010800A0004010B586B004461421CB
:1056600001A8FAF7F9FE6249206888423CD16148F6
:105670000068401C5F4908600846006801280DD199
:1056800000BF5D48006840F480705B4908600846D0
:10569000006800F48070009000BF00BF00BF564853
:1056A0000C38006840F0080053490C39086008467F
:1056B000006800F00800009000BF00BF03200190C8
:1056C000022002900020039004900920059001A977
:1056D0004A4800F03DF900220621132000F0FCFAB0
:1056E000132000F0E5FA81E04549206888423CD16A
:1056F00040480068401C3F4908600846006801288F
:105700000DD100BF3C48006840F480703A49086001
:105710000846006800F48070009000BF00BF00BF22
:1057200035480C38006840F0020033490C390860F5
:105730000846006800F00200009000BF00BF602033
:10574000019002200290002003900490092005900F
:1057500001A92C4800F0FCF800220521142000F0DB
:10576000BBFA142000F0A4FA40E0274920688842E0
:105770003CD120480068401C1E490860084600686B
:1057800001280DD100BF1C48006840F480701A4900
:1057900008600846006800F48070009000BF00BFF9
:1057A00000BF15480C38006840F0080012490C3959
:1057B00008600846006800F00800009000BF00BFC5
:1057C0004FF440500190022002900020039004907A
:1057D0000520059001A9094800F0BAF8002205212A
:1057E0009F2000F079FA9F2000F062FA06B010BD09
:1057F00000A000401C000024EC440258000C025899
:1058000000A400400004025800D40040704700008B
:1058100070B504460D4605F0010070B317492068C5
:1058200088422AD140211648FAF716FE144B154A31
:1058300040212046FFF7BAFA1248006898B10328C1
:1058400002D0042817D106E00E480D49C2680E4860
:105850000AF0F6F810E00B480949C2680A483830E7
:105860000AF0EEF808E007480549C2680648E0304B
:105870000AF034F900E000BF00BF70BD00A0004096
:1058800018890024F08800246884002470B5044638
:105890000D4605F0100070B31749206888422AD1E0
:1058A00040211648FAF7D8FD144B154A41212046ED
:1058B000FFF77CFA1248006898B1032802D0042848
:1058C00017D106E00E480D49C2680E480AF0B8F834
:1058D00010E00B480949C2680A4838300AF0B0F8AD
:1058E00008E007480549C2680648AC300AF0F6F8F7
:1058F00000E000BF00BF70BD00A40040808900240C
:1059000058890024D8840024014691F89800012881
:105910000CD1022081F898000868806920F001000D
:105920000A6890610020C1F89C007047D1F89C0083
:1059300040F00400C1F89C000120F6E77047704772
:10594000704770477047704770477047704770479F
:10595000F8B502460B4600216D4DD2E001278F407D
:105960001E6806EA0704002C72D01E7906F00306B2
:10597000012E04D01E7906F00306022E13D1906882
:105980004F000326BE40B0434F00DE68BE403043A8
:105990009060506801268E40B0431E79C6F3001611
:1059A0008E40304350601E7906F00306032E09D066
:1059B000D0684F000326BE40B0434F009E68BE40F3
:1059C0003043D0601E7906F00306022E13D1CF08B3
:1059D00002F1200656F827004E07F70E0F26BE40AC
:1059E000B0434F07FF0E1E69BE403043CF0802F19F
:1059F000200646F8270010684F000326BE40B0433B
:105A00001E7906F003064F00BE40304310605E680A
:105A100006F44036002E73D000BF3E4E366846F086
:105A200002063C4F3E603E46366806F0020600968F
:105A300000BF00BF384E8F0856F827008E07370F7B
:105A40000F26BE40B043354EB24202D1002629E0B7
:105A500056E0334EB24201D1012623E0314EB2422C
:105A600001D102261EE0304EB24201D1032619E0D8
:105A70002E4EB24201D1042614E02D4EB24201D185
:105A800005260FE02B4EB24201D106260AE02A4E2F
:105A9000B24201D1072605E0284EB24201D10926C3
:105AA00000E00A268F073F0FBE4030431A4E8F0892
:105AB00046F827004FF0B0463068A0435E6806F411
:105AC000801606B120434FF0B04630607068A043A6
:105AD0005E6806F4001606B120434FF0B0467060D1
